:020000040800F2
:1000000080060020CD01000831090008A90400087D
:100010002D0900089D020008C50F0008000000001F
:10002000000000000000000000000000F50C0008C7
:10003000A102000800000000C70A0008650E0008C1
:10004000E7010008E7010008E7010008E7010008F0
:10005000E7010008E7010008E7010008E7010008E0
:10006000E7010008E7010008E7010008E7010008D0
:10007000E7010008E7010008E7010008E7010008C0
:10008000E7010008E7010008E7010008E7010008B0
:10009000E7010008E7010008E7010008E7010008A0
:1000A000E7010008E7010008E7010008E701000890
:1000B000E7010008E7010008E7010008E701000880
:1000C000E7010008E7010008E7010008E701000870
:1000D000E7010008DD0E0008050F00082D0F0008DD
:1000E000E7010008E7010008E7010008E701000850
:1000F000E7010008E7010008E7010008E701000840
:10010000E7010008E7010008E7010008E70100082F
:10011000E7010008E7010008E7010008E70100081F
:10012000E7010008E7010008E7010008E70100080F
:1001300000F002F800F03AF80AA090E8000C8244BF
:100140008344AAF10107DA4501D100F02FF8AFF29C
:10015000090EBAE80F0013F0010F18BFFB1A43F0A5
:1001600001031847E00E0000000F0000103A24BF02
:1001700078C878C1FAD8520724BF30C830C144BF0C
:1001800004680C607047000000230024002500264E
:10019000103A28BF78C1FBD8520728BF30C148BFEA
:1001A0000B6070471FB51FBD10B510BD00F031F8D2
:1001B0001146FFF7F7FF00F007FF00F04FF803B418
:1001C000FFF7F2FF03BC00F057F800000948804732
:1001D00009480047FEE7FEE7FEE7FEE7FEE7FEE729
:1001E000FEE7FEE7FEE7FEE704480549054A064B41
:1001F000704700007D0E00083101000880000020DB
:100200008006002080020020800200207047704796
:100210007047754600F02CF8AE4605006946534617
:1002200020F00700854618B020B5FFF7DDFFBDE8D8
:1002300020404FF000064FF000074FF000084FF04D
:10024000000B21F00701AC46ACE8C009ACE8C009DE
:10025000ACE8C009ACE8C0098D46704710B504464B
:10026000AFF300802046BDE81040FFF7A8BF0000B4
:10027000004870472000002001491820ABBEFEE76F
:10028000260002007047014600BF080900EB80000D
:10029000420001F00F001044C0B2704700BFFEE7FB
:1002A000704700000549096821F01001034A1160F8
:1002B00011460968014311607047000000200240A8
:1002C00001460020034A106800F03800084310601F
:1002D00070470000002002402DE9F0410246002551
:1002E0000026002000230024002791F803C00CF012
:1002F0000F0591F803C00CF0100CBCF1000F03D0F7
:1003000091F802C04CEA050591F800C0BCF1000F5D
:1003100031D0146800202BE04FF0010C0CFA00F3F0
:10032000B1F800C00CEA03069E4220D183004FF0D2
:100330000F0C0CFA03F7BC4305FA03FC4CEA040467
:1003400091F803C0BCF1280F06D14FF0010C0CFA54
:1003500000FCC2F814C00AE091F803C0BCF1480FD9
:1003600005D14FF0010C0CFA00FCC2F810C0401C83
:100370000828D1D31460B1F800C0BCF1FF0F34DD00
:10038000546800202EE000F1080C4FF0010808FA34
:100390000CF3B1F800C00CEA03069E4221D18300A1
:1003A0004FF00F0C0CFA03F7BC4305FA03FC4CEAC0
:1003B000040491F803C0BCF1280F05D100F1080C2A
:1003C00008FA0CF8C2F8148091F803C0BCF1480F89
:1003D00007D100F1080C4FF0010808FA0CF8C2F838
:1003E0001080401C0828CED35460BDE8F081000086
:1003F000F0B50A46002300240021002500F0004645
:10040000B6F1004F02D11D4EF16901E01B4E71683B
:10041000C0F3034583B200F44016B6F5401F08D17F
:1004200021F07061154E766826F07066134F7E607D
:1004300012E000F48016B6F5801F06D1032606FAF6
:1004400005F4A14341F0706106E0460D360103FA60
:1004500006F6B14341F0706122B1460D360103FA50
:1004600006F6314300F00046B6F1004F02D1034ECC
:10047000F16101E0014E7160F0BD0000000001403B
:100480000246002093680B400BB1012000E00020E1
:1004900070474161704701617047C16070470AB1A0
:1004A000016100E04161704700BFFEE770B504469E
:1004B0000D4616466069284360616069304360619B
:1004C000022000F0E7FA206928432061022000F0B2
:1004D000E1FA60692843606170BDF8B506460C46D4
:1004E00015460121082000F0EFFA14208DF80300D2
:1004F00044EA0500ADF8000002208DF802006946CC
:100500003046FFF7E9FE45EA04013046FFF7C3FF36
:10051000F8BD70B504460D46164660692843606113
:10052000206930432061022000F0B4FA206928439A
:100530002061022000F0AEFA60692843606170BD5E
:100540002DE9F04780460C4615461E4600272069D7
:1005500030432061B94618E0606928436061022099
:1005600000F098FA2069284320617806070E31468A
:100570002046FFF785FF08B1781CC7B2012000F0C4
:1005800089FA09F1010000F0FF09B9F1080FE3DB76
:10059000B8F1000F05D1324629462046FFF7B9FFD2
:1005A00004E0324629462046FFF780FF3846BDE882
:1005B000F0872DE9F04106460C4615461F46606956
:1005C000284360614FF0000819E0F20939462046DF
:1005D000FFF765FF7006060E022000F05BFA206947
:1005E00028432061022000F055FA606928436061C9
:1005F000022000F04FFA08F1010000F0FF08B8F106
:10060000080FE2DBBDE8F08170B504460D461646E2
:10061000206930432061206928432061042000F0D4
:1006200039FA606930436061042000F033FA606990
:100630002843606170BD70B504460D46164660697A
:1006400028436061606930436061042000F022FA51
:10065000206928432061042000F01CFA20693043FF
:100660002061042000F016FA70BDF0B504460D4676
:1006700016460027206930432061012000F00AFA65
:10068000206928432061012000F004FA0AE0781C68
:10069000C7B2FA2F06DD324629462046FFF7CBFFC8
:1006A0000120F0BDA06830400028F0D160692843E7
:1006B00060610020F5E700002DE9F04704460D4693
:1006C00016461F46DDF82080FF217948FFF7E5FE3A
:1006D00082217848FFF7E1FE77480078401C764990
:1006E000087008460078072801DD0020087073486C
:1006F0000078082825D2DFE800F004254A6B90A195
:10070000B4C576B90A2094FBF0F06D49085C00F09E
:100710007F096C49694A1278885C494600F060FBA1
:100720000CE00A2094FBF0F0654911F8009065494F
:10073000624A1278885C494600F052FB01205F490A
:100740000870B2E086B90A2094FBF0F100FB11407A
:100750005B49085C00F07F095A49584A1278885C66
:10076000494600F03DFB0EE00A2094FBF0F100FB4F
:100770001140534911F800905249504A1278885C50
:10078000494600F02DFB02204C4908708DE076B9F7
:100790000A2095FBF0F04A49085C00F07F094949BE
:1007A000464A1278885C494600F01AFB0CE00A20A1
:1007B00095FBF0F0424911F8009042493F4A127807
:1007C000885C494600F00CFB03203C4908706CE053
:1007D00086B90A2095FBF0F100FB11503849085CFE
:1007E00000F07F093749354A1278885C494600F0A5
:1007F000F7FA0EE00A2095FBF0F100FB11503049AA
:1008000011F800902F492D4A1278885C494600F073
:10081000E7FA04202949087047E00A2097FBF0F026
:10082000274911F800902749244A1278885C4946E4
:1008300000F0D6FA05202149087036E00A2097FB1F
:10084000F0F100FB11701E4911F800901D491B4A80
:100850001278885C494600F0C3FA062017490870F0
:1008600023E00A2098FBF0F0154911F80090154993
:10087000124A1278885C494600F0B2FA07200F4904
:10088000087012E00A2098FBF0F100FB11800C497F
:1008900011F800900B49094A1278885C494600F02B
:1008A0009FFA00200549087000BF00BFBDE8F0872F
:1008B000000C0140000801401E0000201F00002025
:1008C0000B0000201600002008B50121042000F0D4
:1008D000FBF80121082000F0F7F8FF20ADF8000038
:1008E00003208DF8020010208DF8030069460C48A3
:1008F000FFF7F2FCFF20ADF8000003208DF80200A6
:1009000010208DF8030069460648FFF7E5FC012139
:10091000084600F0D9F801210348FFF769FD08BD3A
:1009200000080140000C01400002300000BFFEE75B
:100930007047000010B54FF4006251100A48FFF7ED
:10094000CCFDC82000F0A6F8C82000F0A3F80021D4
:10095000084600F065F80021012000F061F88121CF
:100960000D2000F05DF810BD000C014010B50446EC
:100970004FF4006251102948FFF746FE4FF4006320
:100980005A102649A220FFF714FE4FF400625110BE
:100990002248FFF76AFE4FF400635A101F490320F4
:1009A000FFF707FE4FF4006251101C48FFF75DFE91
:1009B0004FF4006251101948FFF726FE4FF4006310
:1009C0005A101649A320FFF7F4FD4FF400625110AE
:1009D0001248FFF74AFE4FF400635A100F490120F6
:1009E000FFF7AEFD00F07F0060704FF400635A1017
:1009F0000A490020FFF7A4FD00F03F00A0704FF46B
:100A0000006251100548FFF716FE6078FFF73BFCC7
:100A10006070A078FFF737FCA07010BD000C01409B
:100A200070B505460C464FF4006251101848FFF7A8
:100A3000EBFD4FF400635A101549A220FFF7B9FDF2
:100A40004FF4006251101248FFF70FFE4FF400639D
:100A50005A100F492846FFF7ACFD4FF400625110C1
:100A60000B48FFF702FE4FF400635A100849204676
:100A7000FFF79FFD4FF4006251100548FFF7F5FDA9
:100A80004FF4006251100248FFF7D5FD70BD000021
:100A9000000C01400CB500210191009101910EE084
:100AA0000021009104E09DF80010491CC9B200919A
:100AB0009DF800100529F6DB0199491C0191019967
:100AC0008142EDD30CBD704729B1064A92690243B9
:100AD000044B9A6104E0034A92698243014B9A6194
:100AE000704700000010024010B500F031F84FF4DC
:100AF000803000F085F800F0E1F8012826D10020D0
:100B000000F072F8002000F0ADF84FF4806000F0C3
:100B10009DF80220FFF7D4FB1020FFF7C3FB4FF432
:100B2000E0114FF4803000F0AFF8012000F0A6F89B
:100B300000BF392000F032F80028FAD0022000F07F
:100B4000B1F800BF00F048F80828FBD110BD000044
:100B50000F48006840F001000D49086008464068F1
:100B60000C4908400A494860084600680A4908409C
:100B7000074908600846006820F48020086008469D
:100B8000406820F4FE0048604FF41F008860704702
:100B9000001002400000FFF8FFFFF6FE10B501460E
:100BA0000022002300204A11012A02D1094C2368A7
:100BB00006E0022A02D1074C236A01E0054C636A71
:100BC00001F01F02012494401C400CB1012000E000
:100BD000002010BD001002400248406800F00C00E8
:100BE000704700000010024001460020034A506890
:100BF00020F0F000084350607047000000100240F1
:100C00001149096821F480310F4A116011460968C1
:100C100021F480211160B0F5803F03D0B0F5802F22
:100C20000ED106E00849096841F48031064A116096
:100C300007E00549096841F4A021034A116000E07A
:100C400000BF00BF704700000010024001460020B6
:100C5000034A506820F4E060084350607047000089
:100C60000010024001460020034A506820F4605002
:100C700040EAC10050607047001002400149086618
:100C8000704700000000424202460020044B5868B2
:100C900020F47C1042EA01031843014B586070476E
:100CA0000010024001460020034A506820F0030073
:100CB00008435060704700000010024038B5002023
:100CC00000900024002500BF3120FFF767FF054694
:100CD0000098401C00900098B0F5A06F01D0002D46
:100CE000F2D03120FFF75AFF08B1012400E00024C0
:100CF000204638BD704710B500F002F810BD000066
:100D00000CB50020019000903348006840F480301A
:100D10003149086000BF3048006800F4003000909E
:100D20000198401C0190009818B90198B0F5A06F87
:100D3000F1D12948006800F4003010B10120009082
:100D400001E0002000900098012843D1234800686A
:100D500040F01000214908600846006820F00300B8
:100D600008600846006840F0020008601A484068C1
:100D7000194948600846406848600846406840F4A1
:100D8000806048600846406820F47C10486008464F
:100D9000406840F4E81048600846006840F0807001
:100DA000086000BF0C48006800F000700028F9D00F
:100DB0000948406820F00300074948600846406839
:100DC00040F00200486000BF0348406800F00C009B
:100DD0000828F9D10CBD000000100240002002409C
:100DE00070B504460D46FF210748FFF752FB214628
:100DF0000548FFF750FBFF210448FFF74AFB29464F
:100E00000248FFF748FB70BD000C0140000801409C
:100E1000042808D14FF0E021096941F004014FF0A6
:100E2000E022116107E04FF0E021096921F004019F
:100E30004FF0E0221161704710B56FF00400FFF72A
:100E4000E7FF4FF0E020006940F002004FF0E021A2
:100E5000086142F2273048610846006940F001000D
:100E6000086110BD04480078022804DA02480078BE
:100E7000401C0149087070470000002010B513485D
:100E8000006840F0010011490860084640681049B8
:100E900008400E494860084600680E4908400B4962
:100EA00008600846006820F4802008600846406812
:100EB00020F4FE0048604FF41F008860FFF71BFF1E
:100EC0004FF000600449086010BD000000100240AF
:100ED0000000FFF8FFFFF6FE08ED00E010B500246B
:100EE00040F22551064800F03EF818B1044800F0E1
:100EF00064F8C4B24021024800F02CF810BD000094
:100F00000038014010B5002440F22551064800F099
:100F10002AF818B1044800F050F8C4B24021024841
:100F200000F018F810BD00000044004010B5002487
:100F300040F22551064800F016F818B1044800F0B8
:100F40003CF8C4B24021024800F004F810BD000093
:100F50000048004001F40072B2F5007F00D100BFEC
:100F6000CA430280704770B5024600240023002562
:100F7000002040F66A16B14200D100BFC1F342150D
:100F800001F01F03012606FA03F3012D02D1968911
:100F9000334006E0022D02D1168A334001E0968AE2
:100FA00033400C12012606FA04F41688344013B1BB
:100FB0000CB1012000E0002070BD01468888C0F31C
:100FC0000800704700BFFEE708B5FFF78DFDFFF78B
:100FD00033FFFFF779FCFFF7ADFC28E014480078F9
:100FE000022824DB00201249087012480078401CB7
:100FF0001049087008460078FA280CDB00200870B9
:101000000D48007808B9012000E000200A49087066
:101010000A48FFF7ABFC0A480078084A009051786C
:101020009078074A1378044A1278FFF745FBD5E712
:101030000000002001000020020000200400002029
:1010400003000020641000080000002020000000C1
:101050006C010008841000082000002060060000D9
:10106000880100080000000000000000000000C02F
:10107000F9A4B0999282F88090FF01020408102030
:0410800040800000AC
:04000005080001CD21
:00000001FF
