:020000040800F2
:1000000068060020CD010008D90400086D0400082E
:10001000D504000887020008A909000800000000B4
:1000200000000000000000000000000009070008B8
:100030008B02000800000000DB04000849080008EB
:10004000E7010008E7010008E7010008E7010008F0
:10005000E7010008E7010008E7010008E7010008E0
:10006000E7010008E7010008E7010008E7010008D0
:10007000E7010008E7010008E7010008E7010008C0
:10008000E7010008E7010008E7010008E7010008B0
:10009000E7010008E7010008E7010008E7010008A0
:1000A000E7010008E7010008E7010008E701000890
:1000B000E7010008E7010008E7010008E701000880
:1000C000E7010008E7010008E7010008E701000870
:1000D000E7010008C1080008E90800081109000844
:1000E000E7010008E7010008E7010008E701000850
:1000F000E7010008E7010008E7010008E701000840
:10010000E7010008E7010008E7010008E70100082F
:10011000E7010008E7010008E7010008E70100081F
:10012000E7010008E7010008E7010008E70100080F
:1001300000F002F800F03AF80AA090E8000C8244BF
:100140008344AAF10107DA4501D100F02FF8AFF29C
:10015000090EBAE80F0013F0010F18BFFB1A43F0A5
:100160000103184784080000A4080000103A24BFC7
:1001700078C878C1FAD8520724BF30C830C144BF0C
:1001800004680C607047000000230024002500264E
:10019000103A28BF78C1FBD8520728BF30C148BFEA
:1001A0000B6070471FB51FBD10B510BD00F031F8D2
:1001B0001146FFF7F7FF00F0F9FB00F04FF803B42A
:1001C000FFF7F2FF03BC00F057F800000948804732
:1001D00009480047FEE7FEE7FEE7FEE7FEE7FEE729
:1001E000FEE7FEE7FEE7FEE704480549054A064B41
:1001F0007047000061080008310100086800002015
:1002000068060020680200206802002070477047DE
:100210007047754600F02CF8AE4605006946534617
:1002200020F00700854618B020B5FFF7DDFFBDE8D8
:1002300020404FF000064FF000074FF000084FF04D
:10024000000B21F00701AC46ACE8C009ACE8C009DE
:10025000ACE8C009ACE8C0098D46704710B504464B
:10026000AFF300802046BDE81040FFF7A8BF0000B4
:10027000004870470400002001491820ABBEFEE78B
:1002800026000200704700BFFEE770470549096875
:1002900021F01001034A1160114609680143116001
:1002A000704700000020024001460020034A106809
:1002B00000F0380008431060704700000020024042
:1002C0002DE9F041024600250026002000230024ED
:1002D000002791F803C00CF00F0591F803C00CF053
:1002E000100CBCF1000F03D091F802C04CEA0505D8
:1002F00091F800C0BCF1000F31D0146800202BE051
:100300004FF0010C0CFA00F3B1F800C00CEA030640
:100310009E4220D183004FF00F0C0CFA03F7BC4330
:1003200005FA03FC4CEA040491F803C0BCF1280F61
:1003300006D14FF0010C0CFA00FCC2F814C00AE020
:1003400091F803C0BCF1480F05D14FF0010C0CFA35
:1003500000FCC2F810C0401C0828D1D31460B1F8CA
:1003600000C0BCF1FF0F34DD546800202EE000F126
:10037000080C4FF0010808FA0CF3B1F800C00CEAC1
:1003800003069E4221D183004FF00F0C0CFA03F7B5
:10039000BC4305FA03FC4CEA040491F803C0BCF129
:1003A000280F05D100F1080C08FA0CF8C2F81480E7
:1003B00091F803C0BCF1480F07D100F1080C4FF0D1
:1003C000010808FA0CF8C2F81080401C0828CED3A7
:1003D0005460BDE8F0810000F0B50A460023002417
:1003E0000021002500F00046B6F1004F02D11D4E5D
:1003F000F16901E01B4E7168C0F3034583B200F45C
:100400004016B6F5401F08D121F07061154E766890
:1004100026F07066134F7E6012E000F48016B6F589
:10042000801F06D1032606FA05F4A14341F070614E
:1004300006E0460D360103FA06F6B14341F070615D
:1004400022B1460D360103FA06F6314300F00046AC
:10045000B6F1004F02D1034EF16101E0014E71602F
:10046000F0BD000000000140C160704700BFFEE722
:1004700008B50121042000F031F80121082000F026
:100480002DF8FF20ADF8000003208DF802001020A9
:100490008DF8030069460C48FFF712FFFF20ADF806
:1004A000000003208DF8020010208DF8030069463B
:1004B0000648FFF705FF0121084600F00FF801216B
:1004C0000348FFF789FF08BD00080140000C014008
:1004D0000002300000BFFEE77047704729B1064AAE
:1004E00092690243044B9A6104E0034A9269824391
:1004F000014B9A61704700000010024010B500F0F7
:1005000031F84FF4803000F085F800F0E1F8012870
:1005100026D1002000F072F8002000F0ADF84FF472
:10052000806000F09DF80220FFF7BEFE1020FFF76C
:10053000ADFE4FF4E0114FF4803000F0AFF8012031
:1005400000F0A6F800BF392000F032F80028FAD0F9
:10055000022000F0B1F800BF00F048F80828FBD1F5
:1005600010BD00000F48006840F001000D49086010
:10057000084640680C4908400A4948600846006837
:100580000A490840074908600846006820F48020AE
:1005900008600846406820F4FE0048604FF41F00E1
:1005A00088607047001002400000FFF8FFFFF6FE71
:1005B00010B501460022002300204A11012A02D171
:1005C000094C236806E0022A02D1074C236A01E0A5
:1005D000054C636A01F01F02012494401C400CB1D9
:1005E000012000E0002010BD0010024002484068D9
:1005F00000F00C007047000000100240014600208F
:10060000034A506820F0F000084350607047000033
:10061000001002401149096821F480310F4A11602D
:100620001146096821F480211160B0F5803F03D0A4
:10063000B0F5802F0ED106E00849096841F48031F9
:10064000064A116007E00549096841F4A021034A00
:10065000116000E000BF00BF7047000000100240C2
:1006600001460020034A506820F4E06008435060CF
:10067000704700000010024001460020034A506805
:1006800020F4605040EAC100506070470010024002
:1006900001490866704700000000424202460020FF
:1006A000044B586820F47C1042EA01031843014BC4
:1006B000586070470010024001460020034A50680D
:1006C00020F0030008435060704700000010024013
:1006D00038B5002000900024002500BF3120FFF72E
:1006E00067FF05460098401C00900098B0F5A06F89
:1006F00001D0002DF2D03120FFF75AFF08B10124BC
:1007000000E00024204638BD704710B500F002F824
:1007100010BD00000CB50020019000903348006827
:1007200040F480303149086000BF3048006800F470
:10073000003000900198401C0190009818B9019871
:10074000B0F5A06FF1D12948006800F4003010B175
:100750000120009001E0002000900098012843D182
:100760002348006840F010002149086008460068EE
:1007700020F0030008600846006840F002000860AE
:100780001A48406819494860084640684860084669
:10079000406840F4806048600846406820F47C105F
:1007A00048600846406840F4E81048600846006821
:1007B00040F08070086000BF0C48006800F00070D6
:1007C0000028F9D00948406820F003000749486034
:1007D0000846406840F00200486000BF0348406897
:1007E00000F00C000828F9D10CBD000000100240F8
:1007F00000200240042808D14FF0E021096941F0AF
:1008000004014FF0E022116107E04FF0E021096997
:1008100021F004014FF0E0221161704710B56FF034
:100820000400FFF7E7FF4FF0E020006940F002000E
:100830004FF0E02108614FF47A7048610846006982
:1008400040F00100086110BD04480078022804DA75
:1008500002480078401C01490870704700000020E1
:1008600010B51348006840F00100114908600846BF
:100870004068104908400E494860084600680E4923
:1008800008400B4908600846006820F48020086092
:100890000846406820F4FE0048604FF41F0088605E
:1008A000FFF733FF4FF000600449086010BD0000FF
:1008B000001002400000FFF8FFFFF6FE08ED00E028
:1008C00010B5002440F22551064800F03EF818B15A
:1008D000044800F064F8C4B24021024800F02CF84B
:1008E00010BD00000038014010B5002440F2255131
:1008F000064800F02AF818B1044800F050F8C4B2D5
:100900004021024800F018F810BD000000440040EB
:1009100010B5002440F22551064800F016F818B131
:10092000044800F03CF8C4B24021024800F004F84A
:1009300010BD00000048004001F40072B2F5007FD5
:1009400000D100BFCA430280704770B50246002440
:1009500000230025002040F66A16B14200D100BFF6
:10096000C1F3421501F01F03012606FA03F3012D1E
:1009700002D19689334006E0022D02D1168A334017
:1009800001E0968A33400C12012606FA04F4168818
:10099000344013B10CB1012000E0002070BD0146CD
:1009A0008888C0F30800704700BFFEE7FFF7A6FD88
:1009B000FFF734FFFFF75CFDFF210848FFF754FD08
:1009C00000210748FFF750FD06E00648007802289E
:1009D00002DB002003490870F7E70000000C01402B
:1009E0000008014000000020080A00080000002064
:1009F000040000006C0100080C0A0008040000203C
:0C0A0000640600008801000800000000EF
:04000005080001CD21
:00000001FF
